:100000000C9462000C948A000C948A000C948A0070
:100010000C948A000C948A000C948A000C948A0038
:100020000C948A000C948A000C948A000C948A0028
:100030000C948A000C948A000C948A000C948A0018
:100040000C9412030C948A000C94E0020C94BA02F3
:100050000C948A000C948A000C948A000C948A00F8
:100060000C948A000C948A000000000024002700F1
:100070002A0000000000250028002B0000000008D6
:10008000000201000003040700000000000000005F
:1000900000000000230026002900040404040404D6
:1000A0000404020202020202030303030303010227
:1000B00004081020408001020408102001020408F6
:1000C00010207D0511241FBECFEFD8E0DEBFCDBFCD
:1000D00011E0A0E0B1E0EAE1FCE002C005900D9281
:1000E000AE31B107D9F721E0AEE1B1E001C01D9218
:1000F000A63CB207E1F710E0C2E6D0E004C02197C9
:10010000FE010E940506C136D107C9F70E94A1036E
:100110000C940B060C940000AF92BF92CF92DF922A
:10012000EF92FF920F931F93CF93DF936C017B01AC
:100130008B01040F151FEB015E01AE18BF08C0173D
:10014000D10759F06991D601ED91FC910190F081B0
:10015000E02DC6010995892B79F7C501DF91CF9173
:100160001F910F91FF90EF90DF90CF90BF90AF90D5
:100170000895FC01538D448D252F30E0842F90E0AD
:10018000821B930B541710F0CF9608950197089592
:10019000FC01918D828D981761F0A28DAE0FBF2F5B
:1001A000B11D5D968C91928D9F5F9F73928F90E0B1
:1001B00008958FEF9FEF0895FC01918D828D981720
:1001C00031F0828DE80FF11D858D90E008958FEF5D
:1001D0009FEF0895FC01918D228D892F90E0805C26
:1001E0009F4F821B91098F739927089589E291E0AF
:1001F0000E94EA0021E0892B09F420E0822F089573
:1002000080E090E0892B29F00E94F60081110C9487
:1002100000000895FC01A48DA80FB92FB11DA35AA9
:10022000BF4F2C91848D90E001968F739927848F16
:10023000A689B7892C93A089B1898C918370806439
:100240008C93938D848D981306C00288F389E02DDA
:1002500080818F7D80830895EF92FF920F931F938B
:10026000CF93DF93EC0181E0888F9B8D8C8D981369
:100270001AC0E889F989808185FF15C09FB7F89475
:10028000EE89FF896083E889F989808183708064C1
:1002900080839FBF81E090E0DF91CF911F910F910C
:1002A000FF90EF900895F62E0B8D10E00F5F1F4F1B
:1002B0000F731127E02E8C8D8E110CC00FB607FC2A
:1002C000FACFE889F989808185FFF5CFCE010E94B8
:1002D0000A01F1CFEB8DEC0FFD2FF11DE35AFF4F1B
:1002E000F0829FB7F8940B8FEA89FB898081806246
:1002F000CFCFCF93DF93EC01888D8823B9F0AA8903
:10030000BB89E889F9898C9185FD03C0808186FDD0
:100310000DC00FB607FCF7CF8C9185FFF2CF80811F
:1003200085FFEDCFCE010E940A01E9CFDF91CF9189
:100330000895833081F028F4813099F08230A9F05B
:1003400008958730A9F08830C9F08430B1F48091E5
:1003500080008F7D03C0809180008F778093800024
:10036000089584B58F7784BD089584B58F7DFBCFC4
:100370008091B0008F778093B00008958091B00095
:100380008F7DF9CFCF93DF93282F30E0F901E45828
:10039000FF4F8491F901E255FF4FD491F901E656E0
:1003A000FF4FC491CC23A1F081110E949901EC2F41
:1003B000F0E0EE0FFF1FE057FF4FA591B491EC91D5
:1003C000ED2381E090E009F480E0DF91CF91089582
:1003D00080E090E0FACF1F93CF93DF93282F30E097
:1003E000F901E458FF4F8491F901E255FF4FD49190
:1003F000F901E656FF4FC491CC23A9F0162F8111C5
:100400000E949901EC2FF0E0EE0FFF1FEE58FF4F16
:10041000A591B4918FB7F894EC91111108C0D095C3
:10042000DE23DC938FBFDF91CF911F910895DE2BE8
:10043000F8CFCF93DF9390E0FC01E255FF4F24917A
:1004400086569F4FFC0184918823C9F090E0880F65
:10045000991FFC01E859FF4FA591B491FC01EE589A
:10046000FF4FC591D49161110DC09FB7F8948C9145
:10047000209582238C938881282328839FBFDF9136
:10048000CF910895623051F49FB7F8943C91822F38
:10049000809583238C93E8812E2BEFCF8FB7F89430
:1004A000EC912E2B2C938FBFEACF3FB7F89480911D
:1004B000230190912401A0912501B091260126B538
:1004C000A89B05C02F3F19F00196A11DB11D3FBF8C
:1004D000BA2FA92F982F8827BC01CD01620F711D5B
:1004E000811D911D42E0660F771F881F991F4A9555
:1004F000D1F708958F929F92AF92BF92CF92DF92E1
:10050000EF92FF926B017C010E9455024B015C014E
:10051000C114D104E104F104B9F00E945502681934
:1005200079098A099B09683E73408105910580F32A
:1005300021E0C21AD108E108F10888EE880E83E0B4
:10054000981EA11CB11CE4CFFF90EF90DF90CF90DC
:10055000BF90AF909F908F900895FC010190002074
:10056000E9F73197AF01481B590BBC0189E291E0D3
:100570000C948C001F920F920FB60F9211242F93A0
:100580003F934F935F936F937F938F939F93AF931B
:10059000BF93EF93FF9389E291E00E940A01FF91DC
:1005A000EF91BF91AF919F918F917F916F915F91EB
:1005B0004F913F912F910F900FBE0F901F90189564
:1005C0001F920F920FB60F9211242F938F939F9328
:1005D000EF93FF93E0913901F0913A018081E0912E
:1005E0003F01F091400182FD1BC09081809142014A
:1005F0008F5F8F7320914301821741F0E091420198
:10060000F0E0E75DFE4F958F80934201FF91EF91FF
:100610009F918F912F910F900FBE0F901F90189563
:100620008081F4CF1F920F920FB60F9211242F9357
:100630003F938F939F93AF93BF9380911F019091AE
:100640002001A0912101B091220130911E0123E0EF
:10065000230F2D3758F50196A11DB11D20931E01C2
:1006600080931F0190932001A0932101B093220158
:100670008091230190912401A0912501B091260140
:100680000196A11DB11D8093230190932401A09395
:100690002501B0932601BF91AF919F918F913F911A
:1006A0002F910F900FBE0F901F90189526E8230FE3
:1006B0000296A11DB11DD2CFCF92DF92EF92FF9291
:1006C0000F931F93E82FF92F05C00150110921093D
:1006D000310961F1908196239417B9F305C0015057
:1006E00011092109310911F1908196239413F7CF53
:1006F000C12CD12CE12CF12C0AC08FEFC81AD80ADA
:10070000E80AF80A0C151D052E053F0579F08081D1
:100710008623841791F36C2D7D2D8E2D9F2D1F9197
:100720000F91FF90EF90DF90CF90089560E070E020
:1007300080E090E01F910F91FF90EF90DF90CF90BD
:100740000895CF93DF93CDB7DEB7A1970FB6F89496
:10075000DEBF0FBECDBF789484B5826084BD84B502
:10076000816084BD85B5826085BD85B5816085BDAC
:1007700080916E00816080936E0010928100809164
:1007800081008260809381008091810081608093EC
:100790008100809180008160809380008091B10011
:1007A00084608093B1008091B00081608093B0003C
:1007B00080917A00846080937A0080917A008260D0
:1007C00080937A0080917A00816080937A00809192
:1007D0007A00806880937A001092C100E09139011C
:1007E000F0913A0182E08083E0913501F091360189
:1007F0001082E0913701F09138018FEC80831092E4
:100800004101E0913D01F0913E0186E08083E0915D
:100810003B01F0913C01808180618083E0913B014C
:10082000F0913C01808188608083E0913B01F091F0
:100830003C01808180688083E0913B01F0913C0124
:1008400080818F7D808362E082E00E94190262E0F5
:1008500083E00E94190262E084E00E94190261E0D4
:1008600085E00E94190261E086E00E94190261E0C1
:1008700088E00E94190260E087E00E94190264E6A5
:1008800070E080E090E00E947A0223E2222E312C78
:100890003AE0432E512C612C712CEE24E394F12C80
:1008A00090E0C92E90E0D92E82E00E94C201892BEF
:1008B00041F4F0920301E0920201109201011092C2
:1008C000000183E00E94C201892B41F4F0920301F0
:1008D000E0920201F0920101E092000184E00E94A6
:1008E000C201892B41F41092030110920201F0928F
:1008F0000101E092000160E088E00E94EB0183E0EA
:1009000090E00197F1F761E088E00E94EB01C101FE
:100910000197F1F7E5EBF0E06491E1EAF0E0849112
:10092000E82FF0E0EE0FFF1FE057FF4F8591949105
:1009300000E412E42FE030E0462F0E945C036115D2
:1009400071058105910529F06F5F7F4F8F4F9F4F94
:100950009F702AE330E040E050E00E94AA05309307
:1009600028012093270186E191E00E94AD0280904A
:10097000270190902801092C000CAA08BB08B7FE9B
:1009800084C06DE289E291E00E942C012227332786
:10099000A901281939094A095B0919A2CE018196D2
:1009A0005C01CA01B901A30192010E94D405605DF6
:1009B000F50162935F01211531054105510589F764
:1009C000A114B10419F0C5010E94AD028AE191E0C1
:1009D0000E94AD022091270130912801C90144975E
:1009E0008135910508F067C0032E000C440B550BB0
:1009F0002451310941095109ACEBB7E00E94C90506
:100A000020E530E040E050E00E94AA0549015A018B
:100A1000F4E18F0E911CA11CB11C809102019091F8
:100A20000301019721F461E085E00E94EB018091D0
:100A3000000190910101019721F461E086E00E949C
:100A4000EB0164E670E080E090E00E947A0260E0F2
:100A500085E00E94EB0160E086E00E94EB01C501A9
:100A6000B4010E947A026AE070E080E090E00E94A7
:100A70007A02C114D10409F417CF0E94F60088232A
:100A800009F412CF0E9400000BCFA501940119A216
:100A9000CE0181965C01CA01B901A30192010E94B5
:100AA000D405605DF50162935F01211531054105B3
:100AB000510589F785CF24313105ACF480910201CD
:100AC00090910301019721F461E085E00E94EB0120
:100AD000809100019091010161E0019721F686E08B
:100AE0000E94EB01C0CF253631050CF4BCCF60E08D
:100AF00085E00E94EB0160E0F2CFE9E2F1E01382D1
:100B0000128288EE93E0A0E0B0E084839583A68310
:100B1000B78388E091E09183808385EC90E09587AE
:100B2000848784EC90E09787868780EC90E0918BB7
:100B3000808B81EC90E0938B828B82EC90E0958BA4
:100B4000848B86EC90E0978B868B118E128E138EA1
:100B5000148E0895052E97FB1EF400940E94C10583
:100B600057FD07D00E94D40507FC03D04EF40C9427
:100B7000C10550954095309521953F4F4F4F5F4FA0
:100B8000089590958095709561957F4F8F4F9F4FF9
:100B900008950E94F605A59F900DB49F900DA49F07
:100BA000800D911D11240895A1E21A2EAA1BBB1BD2
:100BB000FD010DC0AA1FBB1FEE1FFF1FA217B30729
:100BC000E407F50720F0A21BB30BE40BF50B661F3F
:100BD000771F881F991F1A9469F760957095809503
:100BE00090959B01AC01BD01CF010895A29FB0017A
:100BF000B39FC001A39F700D811D1124911DB29F51
:100C0000700D811D1124911D0895EE0FFF1F059099
:0A0C1000F491E02D0994F894FFCF51
:100C1A0001000100000000002C018C00B9007901DC
:0E0C2A00EA00C800DC00636D3A000D0A00000D
:00000001FF
